:020000020000FC
:100000001AC005C615C625C615C0F0C513C012C056
:1000100011C010C00FC00EC00DC00CC00BC00AC074
:1000200009C008C007C006C005C004C003C002C0A4
:1000300001C000C018950FEF0DBF02E00EBF0FE723
:1000400004B900EC07B901EF0AB905E000936800B4
:1000500000E800936B0002E000936D0005E0009360
:10006000690003E00DBB04E00093B10002E00093DF
:10007000810000270093180200931F0200932202C0
:1000800000932002009321020FEF00931D026CEDFC
:1000900075E0862E972EA62EB72EE62EF72E6EE74B
:1000A00074E0C62ED72E78942E9AEAEF96D52E9825
:1000B000FAE0E8EC92D5FA95E1F725D524D5B6D645
:1000C00000E079D700E0019303E0019303E301939B
:1000D000C0D6ACD60BE10093000200E00093010211
:1000E000DED6B7D60CF04FC053E02E9AE0E075D5BF
:1000F0002E98E0E072D55A95C1F7E2E16ED5BAD5F7
:1001000095D600E058D701E0019303E3019303E3A0
:1001100001939FD68BD601E00093000200E000938C
:100120000102BDD696D6E0E014F580D602E0009339
:10013000000200E000930102B2D68BD6E1E0BCF4ED
:1001400075D603E00093000200E000930102A7D6F9
:1001500080D6E2E064F46AD604E00093000200E096
:10016000009301029CD675D6E3E00CF4C6CFF0E014
:100170003BD660E806273ED62E9AE4E62ED52E988A
:10018000E4E62BD5F9CF52D60DE10093000200E052
:100190000093010284D65DD69CF552E02E9AE0E0F1
:1001A0001CD52E98E0E019D55A95C1F7E2E115D596
:1001B00061D53CD609E00093000204E000930102FF
:1001C00073D647D633D60AE00093000204E00093CA
:1001D00001026AD63ED62AD60BE00093000204E064
:1001E0000093010261D635D621D60CE000930002BF
:1001F00004E00093010258D62CD6A8D3B1D3D6CFB1
:1002000005D638D500912202002309F43AC00ED653
:1002100000E0D1D60FEF019300E0019300E00193DD
:1002200018D604D603E00093000200E00093010218
:1002300036D60FD664F40091210203950093210273
:10024000043609F023C0002700931F021AC0EED520
:1002500000E00093000217D6FCD5E8D503E0009338
:10026000000200E0009301021AD6F3D554F0009189
:100270002002039500932002043641F40FEF00930F
:100280001F02002700932102009320020091220206
:10029000002309F460C000911D02039519F000933A
:1002A0001D025CC0C3D506E0E7D5D3D5BFD507E0B6
:1002B000E3D5CFD5BBD508E0DFD5CBD550E10AD407
:1002C000B5D506E0009300020DE00093010209D6C7
:1002D000C0D5ACD507E0009300020EE00093010208
:1002E00000D6B7D5A3D508E0009300020FE0009335
:1002F0000102F7D5AED55A9511F798D506E00093CF
:10030000000204E00093010242D6A3D58FD507E096
:100310000093000204E00093010239D69AD586D5F5
:1003200008E00093000204E00093010230D691D56A
:100330000FEF0093180200931D02E5D377D501E17A
:100340009BD587D573D502E197D583D56FD503E1CA
:1003500093D57FD503C0002700931D02BBD366D57C
:100360000DE00093000206E000930102BFD571D5B5
:100370005DD50EE00093000207E000930102B6D5C0
:1003800068D554D50FE00093000208E00093010205
:10039000ADD55FD54BD509E00093000204E0009392
:1003A000010282D556D542D50AE00093000204E04E
:1003B0000093010279D54DD539D50BE000930002A9
:1003C00004E00093010270D544D530D50CE00093D1
:1003D000000204E00093010267D53BD500911A02A8
:1003E000002332F423D50DE0009300024CD531D523
:1003F0001DD50DE00093000202E000930102C7D575
:1004000028D514D501E00093000205E00093010215
:10041000BED51FD50BD507E1009300020DE0009378
:10042000010242D516D502D507E10093000201E092
:100430000093010256D50DD5F9D401E100930002D5
:1004400007E1009301024DD504D5F0D409E10093F2
:10045000000201E10093010227D5FBD4E7D40AE1B1
:10046000AAD500E001930AEF019300E00193F1D4D3
:1004700040D2DCD401E10093000209E100930102C3
:1004800013D5E7D4D3D407E1009300020BE1009326
:10049000010231D5DED4CAD400E00093000201E1AC
:1004A0000093010201D5D5D4C1D400E0009300022D
:1004B0000CE1009301021FD5CCD4B8D407E100931E
:1004C000000200E0009301020CD5C3D4AFD409E0D0
:1004D0000093000207E10093010203D5BAD4A6D429
:1004E0000AE00093000207E100930102FAD4B1D4BC
:1004F0009DD40BE00093000207E100930102F6D4C3
:10050000A8D494D40CE00093000207E10093010208
:10051000EDD49FD400911B02002332F487D40EE067
:1005200000930002B0D495D481D40EE00093000271
:1005300002E0009301022BD58CD478D402E0009322
:10054000000205E00093010222D583D46FD407E1B5
:10055000009300020EE000930102A6D47AD466D480
:1005600007E10093000202E000930102BAD471D4C3
:100570005DD402E10093000207E100930102B1D4CF
:1005800068D454D409E10093000202E1009301020F
:100590008BD45FD44BD40AE10ED500E001930AEF6F
:1005A000019300E0019355D4A4D140D402E100931B
:1005B000000209E10093010277D44BD437D407E15C
:1005C000009300020BE10093010295D442D4BED106
:1005D0002DD400E00093000202E10093010264D4F4
:1005E00038D424D400E0009300020CE1009301020F
:1005F00082D42FD41BD407E10093000200E00093C3
:1006000001026FD426D412D409E00093000207E15E
:100610000093010266D41DD409D40AE000930002BD
:1006200007E10093010262D414D400D40BE00093DC
:10063000000207E10093010254D40BD4F7D30CE07D
:100640000093000207E10093010250D402D400910C
:100650001C02002332F4EAD30FE00093000213D40B
:10066000F8D3E4D30FE00093000202E0009301020C
:100670008ED4EFD3DBD303E00093000205E00093B8
:10068000010285D4E6D3D2D307E1009300020FE044
:100690000093010209D4DDD3C9D307E1009300021E
:1006A00003E0009301021DD4D4D3C0D303E100932F
:1006B000000207E10093010214D4CBD3B7D309E1C0
:1006C0000093000203E100930102EED3C2D3AED344
:1006D0000AE171D400E001930AEF019300E0019375
:1006E000B8D307D1A3D303E10093000209E100933B
:1006F0000102DAD3AED39AD307E1009300020DE1F1
:1007000000930102F8D3A5D391D300E00093000237
:1007100003E100930102C8D39CD388D308E14BD4F2
:1007200000E0019300E0019303E3019392D37ED3B1
:1007300000E00093000208E100930102DCD389D3BA
:1007400075D307E10093000200E000930102C9D3D2
:1007500080D36CD300E02FD400E001930AEF019323
:1007600000E0019376D362D307E10093000200E03A
:100770000093010294D36DD34CF058D307E100935A
:10078000000200E0009301028FD363D34FD300E057
:100790000093000278D35DD349D307E100930002B0
:1007A00000E0009301027BD354D34CF43FD307E124
:1007B0000093000200E00093010276D34AD336D3BF
:1007C00009E00093000207E1009301028FD341D3B7
:1007D0002DD30AE00093000207E10093010281D3C8
:1007E00038D324D30BE00093000207E10093010209
:1007F00078D32FD31BD30CE00093000207E10093C2
:10080000010274D326D312D300E0D5D300E00193C4
:1008100006E6019306E601931CD308D309E0009392
:10082000000200E0009301023AD313D34CF4FED24D
:1008300009E00093000200E00093010235D309D3E0
:10084000F5D20AE00093000200E00093010227D3F2
:1008500000D34CF4EBD20AE00093000200E00093D6
:10086000010222D3F6D2E2D20BE00093000200E0B4
:100870000093010214D3EDD24CF4D8D20BE00093D4
:10088000000200E0009301020FD3E3D2CFD20CE0CC
:100890000093000200E00093010201D3DAD24CF48D
:1008A000C5D20CE00093000200E000930102FCD2EC
:1008B000D0D26091180270911F02672311F42E9814
:1008C00001C02E9A009122020095602381F4AED2DD
:1008D00009E0D2D2BED2AAD20AE0CED2BAD2A6D2F1
:1008E0000BE0CAD2B6D2A2D20CE0C6D2B2D238D075
:1008F00087CC9CD209E1009300020AE10093010237
:10090000CED2A7D24CF092D209E1009300020AE1C4
:1009100000930102C9D29DD289D20AE1009300025C
:10092000B2D297D283D209E1009300020AE1009388
:100930000102B5D28ED24CF479D209E100930002C3
:100940000AE100930102B0D284D208952A9A299A2A
:10095000289A5F9A02E003BD00270093B200089531
:1009600065D200E028D303E001930FEF019300E08C
:1009700001936FD25BD209E00093000200E0009384
:1009800001028DD266D24CF051D209E000930002F0
:1009900000E00093010288D25CD248D20AE00093C2
:1009A000000200E0009301027AD253D24CF03ED212
:1009B0000AE00093000200E00093010275D249D2E0
:1009C00035D20BE00093000200E00093010267D2F1
:1009D00040D24CF02BD20BE00093000200E00093D9
:1009E000010262D236D222D20CE00093000200E073
:1009F0000093010254D22DD24CF018D20CE0009397
:100A0000000200E0009301024FD223D20FD209E08E
:100A10000093000202E000930102B9D21AD206D27A
:100A20000AE00093000202E000930102B0D211D26A
:100A3000FDD10BE00093000202E000930102A7D277
:100A400008D2F4D10CE00093000202E0009301020E
:100A50009ED2FFD1EBD109E039D2FBD11091050232
:100A6000E5D10AE033D2F5D120910502DFD10BE0C8
:100A70002DD2EFD130910502D9D10CE027D2E9D1A6
:100A8000409105020091B2000E37E0F350E01150A2
:100A900010F42A9803C0000000000000215010F458
:100AA000299803C0000000000000315010F428987D
:100AB00003C0000000000000415010F45F9803C024
:100AC00000000000000000000000000000005A9537
:100AD000F1F608950FE300937E0000E000937B00A1
:100AE00002E066D0A3D10DE0E6D1B3D101E060D041
:100AF0009DD10EE0E0D1ADD100E05AD097D10FE00A
:100B0000DAD1A7D10895E3E0F0E06ED100931E02A0
:100B10000FE300937E0000E000937B0003E048D0E9
:100B200000911E0200230AF036D080D10BE1C3D120
:100B300090D17CD10BE10093000204E0009301020C
:100B400026D287D104E034D000911E0200230AF09F
:100B500022D06CD10CE1AFD17CD168D10CE10093F3
:100B600000020BE00093010212D273D105E020D005
:100B700000911E0200230AF00ED058D10DE19BD146
:100B800068D154D10DE10093000204E0009301020A
:100B9000FED15FD1089560910502709106020FEFBA
:100BA000602703E0702760930502709306020895A2
:100BB00000937C0006EC00937A0000917A0006FD19
:100BC000FCCF6091780070917900002700930402B7
:100BD000609305027093060208950BEE6BE06A9530
:100BE000F1F70A95D9F7EA95C1F70895DFB7499B60
:100BF00006C0B0918400C0918500DFBF1895809039
:100C00008400909085008B1A9C0ADFBF1895DFB78F
:100C10004A9B06C02090840030908500DFBF189565
:100C2000A0908400B0908500A218B308DFBF18958B
:100C3000DFB74B9B06C04090840050908500DFBF1B
:100C40001895C0908400D0908500C418D508DFBFE7
:100C50001895DFB71F9B06C06090840070908500D8
:100C6000DFBF1895E0908400F0908500E618F70843
:100C7000DFBF1895F894682D792D78947ED00027E1
:100C8000009304026093050270930602CFD005E042
:100C900012D1DFD07CD0CAD001E00093000205E081
:100CA0000093010201D1D5D0F8946A2D7B2D789460
:100CB00064D000270093040260930502709306023B
:100CC000B5D005E0F8D0C5D062D0B0D002E0009336
:100CD000000205E000930102E7D0BBD0F8946C2D30
:100CE0007D2D78944AD0002700930402609305027A
:100CF000709306029BD005E0DED0ABD05CD096D0DE
:100D000004E00093000205E000930102CDD0A1D0E1
:100D1000F8946E2D7F2D789430D000270093040234
:100D2000609305027093060281D005E0C4D091D093
:100D30002ED07CD003E00093000205E00093010276
:100D4000B3D087D000270093220270D000E033D1C7
:100D500000E0019301E0019300E001937AD066D0B6
:100D600004E00093000200E00093010298D071D0EB
:100D70001CF40FEF00932202089577233AF40FEF4B
:100D80006027702701E0600F0027701F08954ED084
:100D900000E011D105E001930CED019300E0019317
:100DA00058D044D005E00093000200E00093010217
:100DB0009DD04FD008953AD000E0FDD004E00193DB
:100DC0000EE7019300E0019344D030D005E000939A
:100DD000000200E00093010289D03BD020F426D02D
:100DE00005E04AD036D00895E1BDF2BD01E00FBB69
:100DF00000B50895F894F999FECFE1BDF2BD00BDAC
:100E000004E00FBB02E00FBB78940895EE27FF27A4
:100E1000EBDF00931A02E1E0FF27E6DF00931B02FD
:100E2000E2E0FF27E1DF00931C02089570930902BE
:100E300030930A0220930B0210930C0260930D0270
:100E400050930E0240930F02E0931002F0931102B0
:100E500008957091090230910A0220910B021091BD
:100E60000C0260910D0250910E0240910F02E09130
:100E70001002F091110208959ED000270193019372
:100E8000019300830895ADD0632F522F412F332754
:100E900022271127361B250B140B9BD0089593D0C6
:100EA0003617250714070895009101020FD000910D
:100EB000000201D008957FD00091060201930091B5
:100EC00005020193009104020193089574D00191E9
:100ED0000093060201910093050201910093040220
:100EE000089571D0360F251F141F73C06CD0361BA8
:100EF000250B140B6EC067D0A12FA427112342F439
:100F000030952095109501E0300F0027201F101F0D
:100F1000442342F460955095409501E0600F00270E
:100F2000501F401F992788277727369F0F92910DD2
:100F30000027801F701F359F900D811D701F349FEB
:100F4000800D711D269F900D811D701F259F800DA6
:100F5000711D249F700D169F800D711D159F700DC2
:100F60000F90000C901F801F701FAA2342F49095D1
:100F70008095709501E0900F0027801F701FE09111
:100F80000202F0910302719381939193089529D005
:100F9000009101021595279537950A95D9F7301FCD
:100FA000201F101F16C01191219131910895419178
:100FB000519161910895E0E0F1E0000F000FE00F22
:100FC0000027F01F08950DD000910102F4DFEFDF3C
:100FD0000895E0910202F09103021193219331935D
:100FE000089500910002E7DFE0930202F09303020C
:040FF000DADF0895A7
:00000001FF
